:1006E700EF1FAC0670011E4C600A7D027CEFDCFE3A
:0406F700DDFC80ECBA
:0106FB0022DC
:0E074400436C6F636B3A0020203A20203A008D
:10072400022100000225000002230000021F000035
:10054400E4F514F5151206FC1207107BFF7A0779FF
:10055400447D017F011206737BFF7A07794B7D018D
:100564007F02120673751A02AB24AA237D017F024F
:100574001206B4751A02AB26AA257D047F02120660
:10058400B4751A02AB22AA217D077F021206B48039
:01059400D492
:03000B000204D814
:0404D800C0E0C0D0F0
:1004DC000520E5207002051F758A20758CD1C3E5B7
:1004EC002094E8E51F648094834048751F007520B4
:1004FC00000522E52270020521943CE521648094DC
:10050C008040307521007522000526E52670020515
:10051C0025943CE52564809480401875250075264B
:10052C00000524E52470020523641845237004F5A6
:03053C0023F52480
:05053F00D0D0D0E03235
:0A0752003F065B4F666D7D077F6F69
:0403E1008F088D09EB
:1003E500780A7C007D007BFF7A0779527E007F0AC0
:1003F50012029BE50814B40800505490040E75F0E1
:1004050003A4C58325F0C5837302042602042A02CA
:10041500042E02043202043602043E02044602049B
:100425004ED2A4800ED2A48012D2A48016D2A4806B
:100435001AC2A4D2A3D2A28016C2A4D2A3C2A280F9
:100445000EC2A4C2A3D2A28006C2A4C2A3C2A27431
:100455000A2509F8E6F5807F057E001206E7758016
:01046500FF97
:010466002273
:06073500C2A58F80D2A7CF
:08073B007F027EEFDEFEDFFC11
:010743002293
:0A075C00C2A6120735C2A702073B30
:10069600CFCDCFCECCCE1203007C007D0A12030054
:0406A600ED2430FF10
:0A06AA00D2A6120735C2A702073BD3
:1006D100AE07BE0104ED148006BE0209ED243F44BD
:0606E10080FF12075C22FD
:1006FC007F3812075C7F0C12075C7F0612075C7F49
:04070C000102075C83
:0A076600AC031206D1AF040206AA8C
:060673008B168A1789189E
:100679001206D1E4FDAB16AA17A9188D827583005D
:0C0689001202C1FF60061206AA0D80E9F3
:010695002242
:0C0640007F0AEA24FFFDE434FFFC7E008A
:08064C008E1B8F1C8C1D8D1EFE
:100654007F017E00E4FBEBC3951EE51D6480F87406
:0E0664008098500AAC1BAD1C1202EE0B80E811
:010672002265
:0406B4008A188B19FC
:1006B8001206D1AA1AEAD39400400D120640AC18CB
:0806C800AD191206961A80ED2F
:0106D0002207
:100595001206D1C3EA64809480400B7F2B1206AA11
:1005A5008A2C8B2D800E7F2D1206AAC3E49BF52D78
:1005B500E49AF52CAA2BEAD39400400D120640AC20
:0905C5002CAD2D1206961A80EDF2
:0105CE00220A
:0405CF008A308B31B2
:1005D3001206D1AA32EAD3940040297F10120642B0
:1005E300AC30AD31CFCDCFCECCCE120300EF540F14
:1005F300FEC3940AEE5004243080022437FF12060F
:04060300AA1A80D1DE
:0106070022D0
:040608008A358B366E
:10060C001206D1AA37EAD394004028EA24FFFDE46D
:10061C0034FFFC7F027E0012064CAC35AD36CFCDDC
:10062C00CFCECCCE120300EF54012430FF1206AA19
:03063C001A80D24F
:01063F002298
:10000E00E4F538F5397590FFC2932097167F14FEEC
:10001E001206E73097FD7F147E001206E775380052
:10002E007539012096177F147E001206E73096FD73
:10003E007F147E001206E775380075390520951776
:10004E007F147E001206E73095FD7F147E001206A7
:10005E00E77538007539092094177F147E00120653
:10006E00E73094FD7F147E001206E775380075396F
:10007E000D7590FFC2922097177F147E001206E72F
:10008E003097FD7F147E001206E775380075390231
:10009E002096177F147E001206E73096FD7F147EA1
:1000AE00001206E77538007539062095177F147E05
:1000BE00001206E73095FD7F147E001206E77538B4
:1000CE000075390A2094177F147E001206E73094CB
:1000DE00FD7F147E001206E775380075390E759097
:1000EE00FFC2912097177F147E001206E73097FD0E
:1000FE007F147E001206E7753800753903209617B7
:10010E007F147E001206E73096FD7F147E001206E5
:10011E00E77538007539072095177F147E00120693
:10012E00E73095FD7F147E001206E77538007539AD
:10013E000B2094177F147E001206E73094FD7F1477
:10014E007E001206E775380075390F7590FFC29064
:10015E002097177F147E001206E73097FD7F147EDE
:10016E00001206E77538007539042096177F147E45
:10017E00001206E73096FD7F147E001206E77538F2
:10018E00007539082095177F147E001206E730950A
:10019E00FD7F147E001206E775380075390C209429
:1001AE00177F147E001206E73094FD7F147E001236
:0C01BE0006E7753800753910AE38AF390F
:0101CA002212
:100710005389F0758A20758CD1C28DD28CD2A9D222
:04072000AFC2B92289
:10046700E4F53AF53B20B1167F14FE1206E730B1EA
:10047700FD7F147E001206E7753A00753B0120B038
:10048700177F147E001206E730B0FD7F147E00123E
:1004970006E7753A00753B0220B2177F147E0012FB
:1004A70006E730B2FD7F147E001206E7753A007545
:1004B7003B0320B3177F147E001206E730B3FD7F9E
:1004C700147E001206E7753A00753B04AE3AAF3B5F
:0104D7002202
:03000000020355A3
:0C035500787FE4F6D8FD75813B02039C24
:1001CB00E709F608DFFA8046E709F208DFFA803E16
:1001DB0088828C83E709F0A3DFFA8032E309F60803
:1001EB00DFFA8078E309F208DFFA807088828C836B
:1001FB00E309F0A3DFFA806489828A83E0A3F6081F
:10020B00DFFA805889828A83E0A3F208DFFA804CF8
:10021B0080D280FA80C680D4806980F280338010CF
:10022B0080A680EA809A80A880DA80E280CA803338
:10023B0089828A83ECFAE493A3C8C582C8CCC583B0
:10024B00CCF0A3C8C582C8CCC583CCDFE9DEE78080
:10025B000D89828A83E493A3F608DFF9ECFAA9F0FF
:10026B00EDFB2289828A83ECFAE0A3C8C582C8CC55
:10027B00C583CCF0A3C8C582C8CCC583CCDFEADE6E
:10028B00E880DB89828A83E493A3F208DFF980CCD0
:10029B0088F0EF60010E4E60C388F0ED2402B404C9
:1002AB000050B9F582EB2402B4040050AF23234570
:0602BB00822390021B7378
:1002C100BB010CE58229F582E5833AF583E02250F2
:1002D10006E92582F8E622BBFE06E92582F8E2223C
:0D02E100E58229F582E5833AF583E4932256
:1002EE00EF8DF0A4A8F0CF8CF0A428CE8DF0A42E24
:0202FE00FE22DE
:10030000BC000BBE0029EF8DF084FFADF022E4CCE1
:10031000F875F008EF2FFFEE33FEEC33FCEE9DECAA
:10032000984005FCEE9DFE0FD5F0E9E4CEFD22EDF0
:10033000F8F5F0EE8420D21CFEADF075F008EF2F3A
:10034000FFED33FD4007985006D5F0F222C398FD2B
:050350000FD5F0EA22C8
:10036100020544E493A3F8E493A34003F68001F269
:1003710008DFF48029E493A3F85407240CC8C3339D
:10038100C4540F4420C8834004F456800146F6DF6C
:10039100E4800B0102040810204080900724E47ED1
:1003A100019360BCA3FF543F30E509541FFEE49361
:1003B100A360010ECF54C025E060A840B8E493A328
:1003C100FAE493A3F8E493A3C8C582C8CAC583CA53
:1003D100F0A3C8C582C8CAC583CADFE9DEE780BE0B
:0107340000C4
:00000001FF
