:1003C700020E000002080000020A0000020C0000F2
:10029200E4F53BF53C1204B0E4F53BF53C853B0E3E
:1002A200853C0F7F017E00120484053CE53C700210
:1002B200053BC39464E53B6480948040E0753B0059
:1002C200753C64D3E53C9400E53B6480948040C86F
:1002D200853B0E853C0F7F017E00120484E53C15B0
:0702E2003C70E0153B80DCDD
:03000B0002000EE2
:10000E00C0E0C0F0C083C082C0D075D000C000C0B8
:0D001E0001C002C003C004C005C006C00739
:10002B00758AA4758CFF0509E50970020508C39450
:10003B00C8E50894004009750800750900120238DC
:10004B00050DE50D7002050CC39414E50C940040EE
:10005B0009750C00750D00120469050BE50B700298
:10006B00050AAE0AFF7C007D641200F18C0A8D0B31
:10007B00D3E50B950FE50A950E4004C2A1800DD375
:0C008B00E50B950FE50A950E5002D2A17E
:10009700D007D006D005D004D003D002D001D000BD
:0B00A700D0D0D082D083D0F0D0E03267
:10048400EF1FAC0670011E4C600B007D027CC7DCC4
:05049400FEDDFC80EB21
:010499002240
:0B04E7003F065B4F666D7D077F6F4096
:0A03D7000810000000000000000004
:07000300740F2FF8A605227F
:1001D200E4F580EF14B4080050549001EA75F0037E
:1001E200A4C58325F0C5837302020202020602023D
:1001F2000A02020E02021202021A02022202022A59
:10020200D2A4800ED2A48012D2A48016D2A4801AC4
:10021200C2A4D2A3D2A28016C2A4D2A3C2A2800E2A
:10022200C2A4C2A3D2A28006C2A4C2A3C2A2ED905B
:0502320004E793F580D4
:0102370022A4
:10046900E4FBFAEB04FF74102BF8E6FD1201D20B42
:0A047900BB00010AEB64084A70E9B9
:010483002256
:1004B0005389F0758AA4758CFFC28DD28CD2A9D2D3
:0404C000AFC2B922EC
:0C03E10002230000021F000002210000A7
:10042F00E4FFFE20B1010F20B0047E007F0220B256
:0C043F00047E007F0320B3047E007F04D5
:01044B00228E
:1002380012042F8E218F22E5206401451F700BE5E3
:100248002245217005F523752401E5206402451F28
:10025800700BE52245217005F523752402E520641D
:1002680003451F700BE52245217005F5237524030E
:10027800E5206404451F700BE52245217005F52330
:0902880075240485211F85222044
:01029100224A
:0904F200AF24AE23E4F523F52448
:0104FB0022DE
:0604D800C2A58F80D2A72F
:0804DE007F027EEFDEFEDFFC71
:0104E60022F3
:0A04FC00C2A61204D8C2A70204DE53
:10041100CFCDCFCECCCE1200F17C007D0A1200F1FF
:04042100ED2430FF97
:0A042500D2A61204D8C2A70204DE1A
:10049A00AE07BE0104ED148006BE0209ED243F44F6
:0604AA0080FF1204FC2299
:1004C4007F381204FC7F0C1204FC7F061204FC7FAC
:0404D400010204FC21
:0A050600AC0312049AAF04020425AE
:0603EE008B388A39893AC0
:1003F40012049AE4FDAB38AA39A93A8D82758300B8
:0C0404001200B2FF60061204250D80E912
:0104100022C9
:0C0394007F0AEA24FFFDE434FFFC7E0039
:0803A0008E348F358C368D3749
:1003A8007F017E00E4FBEBC39537E5366480F87483
:0E03B8008098500AAC34AD351200DF0B80E89F
:0103C6002214
:04044C008A278B2848
:1004500012049AAA29EAD39400400D120394AC27FF
:08046000AD281204111A80ED11
:010468002271
:1002E90012049AC3EA64809480400B7F2B12042580
:1002F9008A1D8B1E800E7F2D120425C3E49BF51EDB
:10030900E49AF51DAA1CEAD39400400D120394AC9B
:090319001DAD1E1204111A80ED45
:0103220022B8
:040323008A2C8B2D68
:1003270012049AAA2EEAD3940040297F101203964A
:10033700AC2CAD2DCFCDCFCECCCE1200F1EF540FDC
:10034700FEC3940AEE5004243080022437FF1204BF
:04035700251A80D112
:01035B00227F
:04035C008A318B3225
:1003600012049AAA33EAD394004028EA24FFFDE459
:1003700034FFFC7F027E001203A0AC31AD32CFCD42
:10038000CFCECCCE1200F1EF54012430FF12042561
:030390001A80D2FE
:010393002247
:03000000020146B4
:0C014600787FE4F6D8FD75813C02018D45
:1000B200BB010CE58229F582E5833AF583E0225003
:1000C20006E92582F8E622BBFE06E92582F8E2224D
:0D00D200E58229F582E5833AF583E4932267
:1000DF00EF8DF0A4A8F0CF8CF0A428CE8DF0A42E35
:0200EF00FE22EF
:1000F100BC000BBE0029EF8DF084FFADF022E4CCF3
:10010100F875F008EF2FFFEE33FEEC33FCEE9DECBB
:10011100984005FCEE9DFE0FD5F0E9E4CEFD22ED01
:10012100F8F5F0EE8420D21CFEADF075F008EF2F4B
:10013100FFED33FD4007985006D5F0F222C398FD3C
:050141000FD5F0EA22D9
:10015200020292E493A3F8E493A34003F68001F22F
:1001620008DFF48029E493A3F85407240CC8C333AE
:10017200C4540F4420C8834004F456800146F6DF7D
:10018200E4800B01020408102040809003C7E47E43
:10019200019360BCA3FF543F30E509541FFEE49372
:1001A200A360010ECF54C025E060A840B8E493A339
:1001B200FAE493A3F8E493A3C8C582C8CAC583CA64
:1001C200F0A3C8C582C8CAC583CADFE9DEE780BE1C
:0103ED00000F
:00000001FF
