:10054700EF1FAC0670011E4C600A7D027CEFDCFEDB
:04055700DDFC80EC5B
:01055B00227D
:1004AE00E4F514F51512055C1200038E148F15E594
:1004BE0015451460F3751A02AB15AA147D017F0160
:0504CE0012051480E39B
:0A058B003F065B4F666D7D077F6F32
:04034A008F088D0982
:10034E00780A7C007D007BFF7A05798B7E007F0A20
:10035E00120290E50814B40800505490037775F01B
:10036E0003A4C58325F0C5837302038F0203930292
:10037E00039702039B02039F0203A70203AF02032C
:10038E00B7D2A4800ED2A48012D2A48016D2A4809A
:10039E001AC2A4D2A3D2A28016C2A4D2A3C2A28091
:1003AE000EC2A4C2A3D2A28006C2A4C2A3C2A274C9
:1003BE000A2509F8E6F5807F057E0012054775804F
:0103CE00FF2F
:0103CF00220B
:06057000C2A58F80D2A796
:080576007F027EEFDEFEDFFCD8
:01057E00225A
:0A059500C2A6120570C2A702057687
:1004F600CFCDCFCECCCE1202F57C007D0A1202F50E
:04050600ED2430FFB1
:0A050A00D2A6120570C2A702057602
:10053100AE07BE0104ED148006BE0209ED243F445E
:0605410080FF1205952267
:10055C007F381205957F0C1205957F061205957F45
:04056C0001020595EE
:0A059F00AC03120531AF0402050A97
:0604D3008B308A318932F2
:1004D900120531E4FDAB30AA31A9328D8275830052
:0C04E9001202B6FF600612050A0D80E941
:0104F50022E4
:0C047B007F0AEA24FFFDE434FFFC7E0051
:080487008E1B8F1C8C1D8D1EC5
:10048F007F017E00E4FBEBC3951EE51D6480F874CD
:0E049F008098500AAC1BAD1C1202E30B80E8E3
:0104AD00222C
:040514008A188B199D
:10051800120531AA1AEAD39400400D12047BAC18D4
:08052800AD191204F61A80ED72
:0105300022A8
:1003D000120531C3EA64809480400B7F2B12050A1A
:1003E0008A248B25800E7F2D12050AC3E49BF525F8
:1003F000E49AF524AA23EAD39400400D12047BACBE
:0904000024AD251204F61A80ED6A
:0104090022D0
:04040A008A288B2988
:10040E00120531AA2AEAD3940040297F1012047DE6
:10041E00AC28AD29CFCDCFCECCCE1202F5EF540FF6
:10042E00FEC3940AEE5004243080022437FF1205D6
:04043E000A1A80D145
:010442002297
:040443008A2D8B2E45
:10044700120531AA2FEAD394004028EA24FFFDE4DD
:1004570034FFFC7F027E00120487AC2DAD2ECFCD7A
:10046700CFCECCCE1202F5EF54012430FF12050A8D
:030477001A80D216
:01047A00225F
:10000300E4F516F5177590FFC2932097167F14FE3B
:100013001205473097FD7F147E00120547751600C1
:100023007517012096177F147E001205473096FD41
:100033007F147E0012054775160075170520951766
:100043007F147E001205473095FD7F147E00120554
:10005300477516007517092094177F147E00120543
:10006300473094FD7F147E001205477516007517FF
:100073000D7590FFC2922097177F147E00120547DB
:100083003097FD7F147E0012054775160075170221
:100093002096177F147E001205473096FD7F147E4D
:1000A300001205477516007517062095177F147EF5
:1000B300001205473095FD7F147E00120547751623
:1000C3000075170A2094177F147E00120547309499
:1000D300FD7F147E0012054775160075170E759087
:1000E300FFC2912097177F147E001205473097FDBA
:1000F3007F147E00120547751600751703209617A7
:100103007F147E001205473096FD7F147E00120592
:10011300477516007517072095177F147E00120583
:10012300473095FD7F147E0012054775160075173D
:100133000B2094177F147E001205473094FD7F1423
:100143007E0012054775160075170F7590FFC29054
:100153002097177F147E001205473097FD7F147E8A
:10016300001205477516007517042096177F147E35
:10017300001205473096FD7F147E00120547751661
:10018300007517082095177F147E001205473095D8
:10019300FD7F147E0012054775160075170C209419
:1001A300177F147E001205473094FD7F147E0012E2
:0C01B3000547751600751710AE16AF1743
:0101BF00221D
:0300000002057F77
:0C057F00787FE4F6D8FD7581320204AEEE
:1001C000E709F608DFFA8046E709F208DFFA803E21
:1001D00088828C83E709F0A3DFFA8032E309F6080E
:1001E000DFFA8078E309F208DFFA807088828C8376
:1001F000E309F0A3DFFA806489828A83E0A3F6082A
:10020000DFFA805889828A83E0A3F208DFFA804C03
:1002100080D280FA80C680D4806980F280338010DA
:1002200080A680EA809A80A880DA80E280CA803343
:1002300089828A83ECFAE493A3C8C582C8CCC583BB
:10024000CCF0A3C8C582C8CCC583CCDFE9DEE7808B
:100250000D89828A83E493A3F608DFF9ECFAA9F00A
:10026000EDFB2289828A83ECFAE0A3C8C582C8CC60
:10027000C583CCF0A3C8C582C8CCC583CCDFEADE79
:10028000E880DB89828A83E493A3F208DFF980CCDB
:1002900088F0EF60010E4E60C388F0ED2402B404D4
:1002A0000050B9F582EB2402B4040050AF2323457B
:0602B0008223900210738E
:1002B600BB010CE58229F582E5833AF583E02250FD
:1002C60006E92582F8E622BBFE06E92582F8E22247
:0D02D600E58229F582E5833AF583E4932261
:1002E300EF8DF0A4A8F0CF8CF0A428CE8DF0A42E2F
:0202F300FE22E9
:1002F500BC000BBE0029EF8DF084FFADF022E4CCED
:10030500F875F008EF2FFFEE33FEEC33FCEE9DECB5
:10031500984005FCEE9DFE0FD5F0E9E4CEFD22EDFB
:10032500F8F5F0EE8420D21CFEADF075F008EF2F45
:10033500FFED33FD4007985006D5F0F222C398FD36
:050345000FD5F0EA22D3
:00000001FF
