:100449004164647220436F6D204E756D0030302019
:0A0459002020303020203030300029
:10027400E4F514F515F51612048F1205157BFF7AB3
:100284000479497D017F011203CE7BFF7A047956FC
:100294007D017F021203CE1204C2EF70061204CF56
:1002A400EF60F412051B8F1412051E8F15E514FB65
:1002B4007A00751B027D017F0212032AE515FB7A81
:1002C40000751B027D067F0212032AE515B409049A
:1002D40005168007E515B415021516E516FB7A0018
:0C02E400751B037D0A7F0212040F80AB23
:10046300EF1FAC0670011E4C600B007D027CC7DCE5
:05047300FEDDFC80EB42
:010478002261
:0604B300C2A58F80D2A754
:0804B9007F027EEFDEFEDFFC96
:0104C1002218
:0A04F200C2A61204B3C2A70204B9A7
:1003F100CFCDCFCECCCE1201937C007D0A120193DA
:04040100ED2430FFB7
:0A040500D2A61204B3C2A70204B984
:10047900AE07BE0104ED148006BE0209ED243F4417
:0604890080FF1204F222C4
:10048F007F381204F27F0C1204F27F061204F27FFF
:04049F00010204F260
:0A04FC00AC03120479AF04020405FA
:0603CE008B178A18891943
:1003D400120479E4FDAB17AA18A9198D827583005C
:0C03E400120154FF60061204050D80E9B0
:0103F00022EA
:0C039B007F0AEA24FFFDE434FFFC7E0032
:0803A7008E1C8F1D8C1E8D1FA2
:1003AF007F017E00E4FBEBC3951FE51E6480F874AC
:0E03BF008098500AAC1CAD1D1201810B80E825
:0103CD00220D
:04040F008A198B1AA1
:10041300120479AA1BEAD39400400D12039BAC1972
:08042300AD1A1203F11A80ED7D
:01042B0022AE
:1002F000120479C3EA64809480400B7F2B120405BA
:100300008A258B26800E7F2D120405C3E49BF526DB
:10031000E49AF525AA24EAD39400400D12039BAC7D
:0903200025AD261203F11A80ED4F
:0103290022B1
:04032A008A198B1A87
:10032E00120479AA1BEAD3940040297F1012039D70
:10033E00AC19AD1ACFCDCFCECCCE120193EF540F58
:10034E00FEC3940AEE5004243080022437FF1204B8
:04035E00051A80D12B
:010362002278
:040363008A298B2A2E
:10036700120479AA2BEAD394004028EA24FFFDE47B
:1003770034FFFC7F027E001203A7AC29AD2ACFCD44
:10038700CFCECCCE120193EF54012430FF120405D7
:030397001A80D2F7
:01039A002240
:0B04DC00D288C289D2A8D2AFD2B822C9
:1004A3005389F0438901E4F58AF58CC28DC28C220D
:0B04E700AD07AC068C8CAF058F8A229D
:09050600AF8CEFFEAD8AEDFF227F
:06050F00EF24FF928C2294
:10042C00020F0000010D00040900000000010E0085
:0C043C0001080001130001120001110072
:060515001204A30204DC45
:0D04C200E5086006E4F5087F01227F0022B6
:0D04CF00E5136006E4F5137F01227F002293
:03051B00AF1222FA
:03051E00AF1122F8
:03000300020006F2
:10000600C0E0C0F0C083C082C0D075D000C000C0C0
:1000160001C002C003C004C005C006C007E50D70DC
:100026000CFFFE1204E77F0112050F8049E50D64FF
:100036000170491205068E0F8F10E4FFFE1204E7C9
:10004600D3E51094A6E50F942E4010E510948EE5A6
:100056000F94325006750D02020139D3E510948CC7
:10006600E50F94264010E5109474E50F942A500687
:10007600751301020131750D01020139E50D6402A6
:100086006003020139F5A01205068E0F8F10E4FFFA
:10009600FE1204E7D3E5109414E50F9402402CE514
:1000A6001094FCE50F94055022E50E131313541F0C
:1000B6002409F8C000E6FFE50E5407FE7401A80601
:1000C600088002C333D8FCF45F8034D3E51094264D
:1000D600E50F94064030E510940EE50F940A50267D
:1000E600E50E131313541F2409F8C000E6FFE50EAE
:1000F6005407FE7401A806088002C333D8FC4FD00B
:1001060000F6050E8006750E00750D01E50EC3940A
:10011600204020750E00E50AF4B5090FE50CF4B58C
:100126000B09850912850B11750801E4FF12050FED
:10013600750D00D007D006D005D004D003D002D06C
:0E01460001D000D0D0D082D083D0F0D0E032F3
:030000000201E812
:0C01E800787FE4F6D8FD75812B02022F11
:10015400BB010CE58229F582E5833AF583E0225060
:1001640006E92582F8E622BBFE06E92582F8E222AA
:0D017400E58229F582E5833AF583E49322C4
:10018100EF8DF0A4A8F0CF8CF0A428CE8DF0A42E92
:02019100FE224C
:10019300BC000BBE0029EF8DF084FFADF022E4CC50
:1001A300F875F008EF2FFFEE33FEEC33FCEE9DEC19
:1001B300984005FCEE9DFE0FD5F0E9E4CEFD22ED5F
:1001C300F8F5F0EE8420D21CFEADF075F008EF2FA9
:1001D300FFED33FD4007985006D5F0F222C398FD9A
:0501E3000FD5F0EA2237
:1001F400020274E493A3F8E493A34003F68001F2AB
:1002040008DFF48029E493A3F85407240CC8C3330B
:10021400C4540F4420C8834004F456800146F6DFDA
:10022400E4800B010204081020408090042CE47E3A
:10023400019360BCA3FF543F30E509541FFEE493CF
:10024400A360010ECF54C025E060A840B8E493A396
:10025400FAE493A3F8E493A3C8C582C8CAC583CAC1
:10026400F0A3C8C582C8CAC583CADFE9DEE780BE79
:0104480000B3
:00000001FF
