:0D03050041444A20204E544320205247001E
:10011E00E4F508F5091202E27BFF7A0379057D0109
:10012E007F011202587F941200978E088F09750E68
:10013E0004AB09AA087D017F021202997FD4120036
:10014E00978E088F09750E04AB09AA087D067F02EB
:10015E001202997FAC1200978E088F09750E04ABB0
:0C016E0009AA087D0B7F0212029980B9DB
:1002B600EF1FAC0670011E4C600B007D027CC7DC94
:0502C600FEDDFC80EBF1
:0102CB002210
:0602F600C2A58F80D2A713
:0802FC007F027EEFDEFEDFFC55
:0103040022D6
:0A031E00C2A61202F6C2A70202FCFA
:10027B00CFCDCFCECCCE1200427C007D0A120042F5
:04028B00ED2430FF2F
:0A028F00D2A61202F6C2A70202FC7A
:1002CC00AE07BE0104ED148006BE0209ED243F44C6
:0602DC0080FF12031E2248
:1002E2007F3812031E7F0C12031E7F0612031E7F2D
:0402F2000102031EE4
:0A032800AC031202CCAF0402028FF6
:060258008B0A8A0B890CE1
:10025E001202CCE4FDAB0AAA0BA90C8D82758300A9
:0C026E00120003FF600612028F0D80E9F1
:01027A002261
:0C0225007F0AEA24FFFDE434FFFC7E00A9
:080231008E0F8F108C118D124D
:100239007F017E00E4FBEBC39512E5116480F8743D
:0E0249008098500AAC0FAD101200300B80E808
:010257002284
:040299008A0C8B0D33
:10029D001202CCAA0EEAD39400400D120225AC0C2A
:0802AD00AD0D12027B1A80ED79
:0102B5002226
:10017A001202CCC3EA64809480400B7F2B12028F58
:10018A008A188B19800E7F2D12028FC3E49BF519F2
:10019A00E49AF518AA17EAD39400400D120225AC86
:0901AA0018AD1912027B1A80ED58
:0101B3002229
:0401B4008A1C8B1DF9
:1001B8001202CCAA1EEAD3940040297F101202270B
:1001C800AC1CAD1DCFCDCFCECCCE120042EF540F1C
:1001D800FEC3940AEE5004243080022437FF120232
:0401E8008F1A80D119
:0101EC0022F0
:0401ED008A218B22B6
:1001F1001202CCAA23EAD394004028EA24FFFDE4AA
:1002010034FFFC7F027E00120231AC21AD22CFCD42
:10021100CFCECCCE120042EF54012430FF12028F18
:030221001A80D26E
:0102240022B7
:02009700A907B7
:10009900E4FBFAF50AF50BC2B5AF0374807E00A83C
:1000A90007088006CEA2E713CE13D8F8FFE9FDEFC3
:1000B9005D24FF92B4D2B6C2B60BBB00010AEB6451
:1000C900084A70D5E4FAFBD2B6C2B630B716AF0308
:1000D900E47E80A807088005CEC313CE13D8F94261
:1000E9000BEE420A0BBB00010AEB64104A70D8D22E
:1000F900B5E930E709E50AF50B750A008012E50A4A
:10010900C4F854F0C868F50AE50BC4540F48F50B58
:04011900AE0AAF0B70
:01011D0022BF
:03000000020312E6
:0C031200787FE4F6D8FD75812302011EFF
:10000300BB010CE58229F582E5833AF583E02250B2
:1000130006E92582F8E622BBFE06E92582F8E222FC
:0D002300E58229F582E5833AF583E4932216
:10003000EF8DF0A4A8F0CF8CF0A428CE8DF0A42EE4
:02004000FE229E
:10004200BC000BBE0029EF8DF084FFADF022E4CCA2
:10005200F875F008EF2FFFEE33FEEC33FCEE9DEC6B
:10006200984005FCEE9DFE0FD5F0E9E4CEFD22EDB1
:10007200F8F5F0EE8420D21CFEADF075F008EF2FFB
:10008200FFED33FD4007985006D5F0F222C398FDEC
:050092000FD5F0EA2289
:00000001FF
