:0804F0007F097EF4DEFEDFFC53
:0104F80022E1
:10041E008F268D271204F97FA01203F51204C5AFA3
:10042E00261203F51204C5AF271203F51204C512E6
:05043E0000030204F0C0
:02038F008F26B7
:10039100E4F5271204F97FA01203F51204C5AF2674
:1003A1001203F51204C51204F97FA11203F5120418
:1003B100C51204438F277F011204DC120003AF270B
:0103C1002219
:10049B00EF1FAC0670011E4C600B007D027CC7DCAD
:0504AB00FEDDFC80EB0A
:0104B0002229
:0904F900D2A0D2A1C2A0C2A1222E
:07000300C2A0D2A1D2A0228D
:0203F500AD0752
:1003F700E4FB74807E00A803088006CEA2E713CE34
:1004070013D8F8FFEDF582EF558224FF92A0D2A111
:06041700C2A10BBB08DCD2
:01041D0022BC
:10044300E4FFFED2A0D2A130A00D7480A8070880DB
:0F04530002C313D8FC4206C2A10FBF08E8AF06D0
:010462002277
:0A04DC00EF24FF92A0D2A1C2A122DA
:0B04C500E4D2A0D2A1A2A033FFC2A18C
:0104D0002209
:0C03C20002220000021E000002200000C9
:10046300E4FFFE20B1010F20B0047E007F0220B222
:0C047300047E007F0320B3047E007F04A1
:01047F00225A
:1002E0001204638E208F21E51F6401451E700BE50B
:1002F0002145207005F522752301E51F6402451E86
:10030000700BE52145207005F522752302E51F6479
:1003100003451E700BE52145207005F5227523036A
:10032000E51F6404451E700BE52145207005F5228C
:0903300075230485201E85211FA0
:0103390022A1
:0904E600AF23AE22E4F522F52358
:0104EF0022EA
:1003CE00021200000210000002140000020E0000D3
:0C03DE0002080000020A0000020C0000EF
:10000E00E4F524F5251204B1AE12AF137C007D0A7F
:10001E0012033AAD077F01120502AE12AF137C0038
:10002E007D0A12033A7F021205027D0A7F03120532
:10003E0002AE10AF117C007D0A12033AAD077F04A9
:10004E00120502AE10AF117C007D0A12033A7F0535
:10005E001205027D0A7F06120502AE14AF157C0052
:10006E007D0A12033AAD077F07120502AE14AF15D3
:10007E007C007D0A12033A7F081205021204E68EF6
:10008E00248F25E52545247003020016E52564011D
:10009E0045247014E50F450E70047F0180027F0029
:1000AE00750E008F0F020016E52564024524700FB1
:1000BE00F512F513F510F511F514F515020016E508
:1000CE0025640345247017AD13FF12041EAD117F76
:1000DE000112041EAD157F0212041E020016E52544
:1000EE00640445246003020016FF12038F7512008C
:1000FE008F137F0112038F7510008F117F02120371
:09010E008F7514008F1502001614
:03000B00020117D8
:10011700C0E0C0F0C083C082C0D075D000C000C0AE
:0D01270001C002C003C004C005C006C0072F
:10013400758A66758CFC0509E50970020508050BCE
:10014400E50B7002050A050DE50D7002050CC3E50B
:1001540009940AE5089400404E750800750900E505
:100164000F450E60420515E515700205149464E50B
:1001740014940040327514007515000511E51170D2
:10018400020510943CE5109400401C751000751194
:10019400000513E51370020512943CE51294004027
:1001A40006751200751300C3E50B9414E50A940058
:1001B4004009750A00750B001202E0C3E50D9402B4
:0F01C400E50C94004009750C00750D00120480C5
:1001D300D007D006D005D004D003D002D001D00080
:0B01E300D0D0D082D083D0F0D0E0322A
:0B04D1003F065B4F666D7D077F6F40AC
:0A03EA0008160000000000000000EB
:0705020074152FF8A6052275
:10027A00E4F580EF14B40800505490029275F0032C
:10028A00A4C58325F0C583730202AA0202AE020244
:10029A00B20202B60202BA0202C20202CA0202D2C0
:1002AA00D2A4800ED2A48012D2A48016D2A4801A1C
:1002BA00C2A4D2A3D2A28016C2A4D2A3C2A2800E82
:1002CA00C2A4C2A3D2A28006C2A4C2A3C2A2ED90B3
:0502DA0004D193F58042
:0102DF0022FC
:10048000E4FBFAEB04FF74162BF8E6FD12027A0B7C
:0A049000BB00010AEB64084A70E9A2
:01049A00223F
:1004B1005389F0758A66758CFCC28DD28CD2A9D213
:0404C100AFC2B922EB
:030000000201EE0C
:0C01EE00787FE4F6D8FD75812702023509
:10033A00BC000BBE0029EF8DF084FFADF022E4CCA7
:10034A00F875F008EF2FFFEE33FEEC33FCEE9DEC70
:10035A00984005FCEE9DFE0FD5F0E9E4CEFD22EDB6
:10036A00F8F5F0EE8420D21CFEADF075F008EF2F00
:10037A00FFED33FD4007985006D5F0F222C398FDF1
:05038A000FD5F0EA228E
:1001FA0002000EE493A3F8E493A34003F68001F20D
:10020A0008DFF48029E493A3F85407240CC8C33305
:10021A00C4540F4420C8834004F456800146F6DFD4
:10022A00E4800B01020408102040809003C2E47E9F
:10023A00019360BCA3FF543F30E509541FFEE493C9
:10024A00A360010ECF54C025E060A840B8E493A390
:10025A00FAE493A3F8E493A3C8C582C8CAC583CABB
:10026A00F0A3C8C582C8CAC583CADFE9DEE780BE73
:0103F4000008
:00000001FF
