:10018F00003C004200A90085008500A90042003C08
:0501AB00C2B6C2B5223E
:040142008E1A8F1B67
:10014600E4FBFAAF0374807E00A807088006CEA2FF
:10015600E713CE13D8F8FFE51A5EFEE51B5F4E24C3
:10016600FF92B4D2B6C2B60BBB00010AEB64084AD2
:0601760070D1D2B5C2B544
:01017C002260
:10017D007580FF7480A807088002C313D8FCF45261
:02018D008022CE
:1000F900E4F508F509780A7C00FD7BFF7A01798F20
:10010900FE7F101200D31201ABE4F508F509E509E9
:1001190025E0240AF8E6FE08E6FF120142AF09AE1F
:100129000812017D0509E50970020508C39408E56F
:09013900086480948040D780D056
:0300000002019F5B
:0C019F00787FE4F6D8FD75811B0200F9A2
:10000300E709F608DFFA8046E709F208DFFA803EDF
:1000130088828C83E709F0A3DFFA8032E309F608CC
:10002300DFFA8078E309F208DFFA807088828C8334
:10003300E309F0A3DFFA806489828A83E0A3F608E8
:10004300DFFA805889828A83E0A3F208DFFA804CC2
:1000530080D280FA80C680D4806980F28033801099
:1000630080A680EA809A80A880DA80E280CA803302
:1000730089828A83ECFAE493A3C8C582C8CCC5837A
:10008300CCF0A3C8C582C8CCC583CCDFE9DEE7804A
:100093000D89828A83E493A3F608DFF9ECFAA9F0C9
:1000A300EDFB2289828A83ECFAE0A3C8C582C8CC1F
:1000B300C583CCF0A3C8C582C8CCC583CCDFEADE38
:1000C300E880DB89828A83E493A3F208DFF980CC9A
:1000D30088F0EF60010E4E60C388F0ED2402B40493
:1000E3000050B9F582EB2402B4040050AF2323453A
:0600F3008223900053730C
:00000001FF
