:020000040800F2
:10000000600600206D010008490A0008A7080008E2
:1000100035090008D70200081D0F00080000000085
:10002000000000000000000000000000CD0D0008EE
:100030002D07000800000000890D0008B90E000817
:100040008701000887010008870100088701000870
:100050008701000887010008870100088701000860
:100060008701000887010008870100088701000850
:100070008701000887010008870100088701000840
:100080008701000887010008870100088701000830
:100090008701000887010008870100088701000820
:1000A0008701000887010008870100088701000810
:1000B0008701000887010008870100088701000800
:1000C00087010008870100088701000887010008F0
:1000D00087010008870100088701000887010008E0
:1000E00087010008870100088701000800F002F876
:1000F00000F02CF80AA090E8000C82448344AAF196
:100100000107DA4501D100F021F8AFF2090EBAE893
:100110000F0013F0010F18BFFB1A43F0010318473B
:100120006816000078160000002300240025002631
:10013000103A28BF78C1FBD8520728BF30C148BF4A
:100140000B6070471FB51FBD10B510BD00F08AF8D9
:100150001146FFF7F7FF00F0E3FE00F0A8F803B444
:10016000FFF7F2FF03BC00F0AFF80000094880473A
:1001700009480047FEE7FEE7FEE7FEE7FEE7FEE789
:10018000FEE7FEE7FEE7FEE704480549054A064BA1
:1001900070470000BD0E0008ED0000086000002060
:1001A00060060020600200206002002010B5203AA6
:1001B000C0F00B80B1E81850203AA0E81850B1E820
:1001C0001850A0E81850BFF4F5AF5FEA027C24BFD6
:1001D000B1E81850A0E8185044BF18C918C0BDE8CD
:1001E00010405FEA827C24BF51F8043B40F8043B96
:1001F00008BF7047D20728BF31F8023B48BF11F84B
:10020000012B28BF20F8023B48BF00F8012B7047A4
:100210004FF0000200B5134694469646203922BF9F
:10022000A0E80C50A0E80C50B1F12001BFF4F7AFEA
:10023000090728BFA0E80C5048BF0CC05DF804EBCC
:10024000890028BF40F8042B08BF704748BF20F83A
:10025000022B11F0804F18BF00F8012B7047704738
:1002600070477047754600F02BF8AE4605006946AA
:10027000534620F00700854618B020B5FFF784FFED
:10028000BDE820404FF000064FF000074FF0000897
:100290004FF0000B21F00701AC46ACE8C009ACE818
:1002A000C009ACE8C009ACE8C0098D46704710B57C
:1002B0000446AFF300802046BDE81040FFF74FBF73
:1002C000004870470000002001491820ABBEFEE73F
:1002D00026000200704700BFFEE7000010B50021B5
:1002E000837A012202FA03F13D4A126842F00102C8
:1002F0003B4B1A603A4A1C3212688A43384B1C3313
:100300001A60027BCAB9364A0C3212688A43344BEF
:100310000C331A604288C38842EA0343304A4032B1
:10032000847A42F834300288838842EA03432C4AB4
:100330004032847A02EBC4025360027B012A19D155
:10034000274A0C3212680A43254B0C331A60428844
:10035000038842EA0343224A4032847A42F8343026
:10036000C288838842EA03431D4A4032847A02EB02
:10037000C4025360C27A3AB9194A121D12688A43FC
:10038000174B1B1D1A6006E0154A121D12680A431E
:10039000134B1B1D1A60028932B9114A14321268BC
:1003A0008A430F4B14331A600289012A06D10C4A82
:1003B000143212680A430A4B14331A60427B012A32
:1003C00006D1074A1C3212680A43054B1C331A60D7
:1003D000034A126822F00102014B1A6010BD0000AE
:1003E0000066004030B5024600200023146824F067
:1003F00002041460146844F00104146000E05B1C03
:10040000546804F001041CB94FF6FF74A342F6D1FE
:10041000546804F001040CB900206CE08C79012CC4
:1004200004D1146844F08004146003E0146824F0DC
:1004300080041460CC79012C04D1146844F0400489
:10044000146003E0146824F0400414600C7A012C5A
:1004500004D1146844F02004146003E0146824F00C
:10046000200414604C7A012C04D1146844F0100468
:10047000146003E0146824F0100414608C7A012CDA
:1004800004D1146844F00804146003E0146824F0F4
:1004900008041460CC7A012C04D1146844F00404DC
:1004A000146003E0146824F0040414608C78A4073A
:1004B000CD7844EA05640D7944EA05444D7944EA6F
:1004C00005540D886D1E2C43D461146824F001047A
:1004D0001460002300E05B1C546804F001041CB1AC
:1004E0004FF6FF74A342F6D1546804F001040CB136
:1004F000002000E0012030BD0246002019B9D36879
:1005000003F0030006E0012903D1136903F003009F
:1005100000E00020704710B500F5D87303EB01131D
:100520001B6803F004031372137A53B900F5D873F0
:1005300003EB01131B6840F2FF7404EA535313608A
:1005400009E000F5D87303EB01131B686FF06044FA
:1005500004EAD303536000F5D87303EB01131B685F
:1005600003F00203537200F5D87303EB01135B68C9
:1005700003F00F03937200F5D87303EB01135B686C
:100580001B0AD37400F5D87303EB01139B68D37275
:1005900000F5D87303EB01139B681C0A147300F574
:1005A000D87303EB01139B681C0C547300F5D873CC
:1005B00003EB01139B681B0E937300F5D87303EBD9
:1005C0000113DB68D37300F5D87303EB0113DB6809
:1005D0001C0A147400F5D87303EB0113DB681C0CC0
:1005E000547400F5D87303EB0113DB681B0E93748E
:1005F00021B9C36843F02003C36003E0036943F0FB
:100600002003036110BD10B502460020936803F07B
:100610008063B3F1806F00D110E0936803F0006352
:10062000B3F1006F01D1012008E0936803F080531B
:10063000B3F1805F01D1022000E00420042874D0CF
:1006400002F5C07303EB00131B6803F0010402F50D
:10065000C07303EB00131C600B7A7BB94B7A0C88D8
:1006600043EA445302F5C07404EB001424682343A6
:1006700002F5C07404EB0014236010E00B7A4C68A0
:1006800043EAC4034C7A234302F5C07404EB00141C
:100690002468234302F5C07404EB001423608B7AB2
:1006A00003F00F038B7202F5C07303EB00135B685A
:1006B00023F00F0402F5C07303EB00135C6002F536
:1006C000C07303EB00135B688C7A234302F5C0749C
:1006D00004EB001463608B7B1C064B7B44EA0344F1
:1006E0000B7B44EA0323CC7A234302F5C07404EB6A
:1006F0000014A3608B7C1C064B7C44EA03440B7CF7
:1007000044EA0323CC7B234302F5C07404EB0014BA
:10071000E36002F5C07303EB00131B6843F00104B0
:1007200002F5C07303EB00131C6010BD704700B5E9
:10073000034603E04FF47A7000F005F8181EA3F1A9
:100740000103F7D100BD00EBC001C9004FF0E0226A
:100750005161002191610521116100BF4FF0E0213D
:10076000096901F480310029F8D004214FF0E0221A
:10077000116170472DE9F041024600250026002056
:1007800000230024002791F803C00CF00F0591F816
:1007900003C00CF0100CBCF1000F03D091F802C0A4
:1007A0004CEA050591F800C0BCF1000F31D0146887
:1007B00000202BE04FF0010C0CFA00F3B1F800C060
:1007C0000CEA03069E4220D183004FF00F0C0CFA76
:1007D00003F7BC4305FA03FC4CEA040491F803C098
:1007E000BCF1280F06D14FF0010C0CFA00FCC2F846
:1007F00014C00AE091F803C0BCF1480F05D14FF0D6
:10080000010C0CFA00FCC2F810C0401C0828D1D31F
:100810001460B1F800C0BCF1FF0F34DD5468002053
:100820002EE000F1080C4FF0010808FA0CF3B1F8C3
:1008300000C00CEA03069E4221D183004FF00F0C4A
:100840000CFA03F7BC4305FA03FC4CEA040491F8E4
:1008500003C0BCF1280F05D100F1080C08FA0CF810
:10086000C2F8148091F803C0BCF1480F07D100F121
:10087000080C4FF0010808FA0CF8C2F81080401C70
:100880000828CED35460BDE8F0810246002093686A
:100890000B400BB1012000E0002070470AB101615C
:1008A00000E04161704700BFFEE7000010B5002482
:1008B00002211448FFF7E9FF68B91420FFF737FF5A
:1008C00000BF02210F48FFF7E0FF0028F9D01420F5
:1008D000FFF72DFF01244FF400610A48FFF7D5FF11
:1008E00070B91420FFF723FF00BF4FF400610548E3
:1008F000FFF7CBFF0028F8D01420FFF718FF0224E1
:10090000204610BD000C014008B50121082000F070
:100910004DFA48208DF8030040F60200ADF80000C3
:1009200003208DF8020069460148FFF723FF08BD48
:10093000000C014000BFFEE700B589B00121042092
:1009400000F034FA0121480600F020FA18208DF852
:1009500023004FF48050ADF8200003208DF82200D2
:1009600008A92648FFF706FF48208DF823004FF41A
:100970000060ADF8200003208DF8220008A91F4870
:10098000FFF7F8FE01208DF816003020ADF81400B6
:1009900001208DF8180002208DF8190001208DF833
:1009A000170000208DF81D008DF81F008DF81E0027
:1009B0008DF81C008DF81A008DF81B0005A9104851
:1009C000FFF710FD00208DF80E00ADF80400ADF823
:1009D0000600ADF80800ADF80A0001208DF81000FF
:1009E00000208DF80F00ADF80C0001208DF81100EB
:1009F00001A8FFF773FC09B000BD0000000801402A
:100A00000064004010B50446224600210148FFF76B
:100A100082FD10BD0064004010B500210448FFF7BE
:100A20006BFD002801DD012010BD0020FCE7000067
:100A30000064004010B5044621460248FFF7E3FD7C
:100A400010BD000000640040704770B500240EE047
:100A50000021204600F0EFF8002504E0002000F01F
:100A600083F9681CC5B2802DF8DB601CC4B2082C69
:100A7000EEDB70BD08B50121082000F097F91420C5
:100A80008DF8030003208DF802004FF48070ADF85C
:100A9000000069460A48FFF76DFE4FF40070ADF89C
:100AA000000069460648FFF765FE0122110204486E
:100AB000FFF7F4FE012251020148FFF7EFFE08BDE7
:100AC000000C014070B50546002415E0802020414F
:100AD00000EA05024FF400710E48FFF7DFFE012225
:100AE00011020C48FFF7DAFE00224FF4807109482A
:100AF000FFF7D4FE601CC4B2082CE7DB0122110210
:100B00000448FFF7CBFE00224FF480710148FFF745
:100B1000C5FE70BD000C014010B5012251020A480B
:100B2000FFF7BCFE012211020748FFF7B7FE0022C3
:100B30004FF400710448FFF7B1FE00224FF48071BA
:100B40000148FFF7ABFE10BD000C014010B50022BC
:100B50004FF400710648FFF7A1FE0122110204487C
:100B6000FFF79CFE012251020148FFF797FE10BDDE
:100B7000000C014070B5002406E0002500E06D1C6B
:100B8000B5F57A7FFBD3641CB4F57A7FF5D3FFF714
:100B900071FFAE2000F0D8F8D52000F0D5F8802005
:100BA00000F0D2F8A82000F0CFF83F2000F0CCF8F9
:100BB000D32000F0C9F8002000F0C6F8402000F073
:100BC000C3F8A12000F0C0F8C82000F0BDF8DA207A
:100BD00000F0BAF8122000F0B7F8812000F0B4F865
:100BE000CF2000F0B1F8D92000F0AEF8F12000F0ED
:100BF000ABF8DB2000F0A8F8302000F0A5F8A42026
:100C000000F0A2F8A62000F09FF88D2000F09CF8DC
:100C1000142000F099F8AF2000F096F8FFF715FFC8
:100C200070BD10B50246012000E050430B1EA1F13B
:100C30000101FAD110BD70B505460C4645F0B00073
:100C400000F082F8102141EA141000F07DF804F061
:100C50000F0000F079F870BD2DE9F04105460E4611
:100C60001746721ED206110E6A1E5206100EFFF7AC
:100C7000E2FF002409E0A7F12001134A02EB011171
:100C8000085D00F071F8601CC4B2082CF3DB721E22
:100C9000D206110E6A1E012303EB4202D0B2FFF707
:100CA000CAFF00240BE0A7F12001074A02EB011262
:100CB00004F10801505C00F057F8601CC4B2082C25
:100CC000F1DBBDE8F0810000481100082DE9F04794
:100CD00081460E4690461F4600241DE0381B411EEB
:100CE0001020FFF79EFFB8FBF0F000F00F050A2D73
:100CF00008DA05F13000C2B23019C1B24846FFF738
:100D0000ABFF07E005F13700C2B23019C1B2484667
:100D1000FFF7A2FF601CC4B2BC42DFDBBDE8F08776
:100D20002DE9F04107460E461546002407E02A5DEE
:100D30003019C1B23846FFF78FFF601CC4B2285D7E
:100D40000028F4D1BDE8F08110B50446FFF7E4FEB9
:100D50007820FFF7B7FE0020FFF7B4FE2046FFF72C
:100D6000B1FEFFF7F3FE10BD10B50446FFF7D4FE49
:100D70007820FFF7A7FE4020FFF7A4FE2046FFF7EC
:100D8000A1FEFFF7E3FE10BD7047000029B1064A3F
:100D9000D2690243044BDA6104E0034AD269824318
:100DA000014BDA61704700000010024029B1064A89
:100DB00092690243044B9A6104E0034A92698243B8
:100DC000014B9A617047000000100240704710B557
:100DD00000F002F810BD00000CB50020019000905A
:100DE0003348006840F480303149086000BF304823
:100DF000006800F4003000900198401C01900098B9
:100E000018B90198B0F5A06FF1D12948006800F435
:100E1000003010B10120009001E000200090009807
:100E2000012843D12348006840F0100021490860A0
:100E30000846006820F0030008600846006840F09B
:100E4000020008601A48406819494860084640682E
:100E500048600846406840F4806048600846406842
:100E600020F47C1048600846406840F4E810486070
:100E70000846006840F08070086000BF0C480068B9
:100E800000F000700028F9D00948406820F0030005
:100E9000074948600846406840F00200486000BFCB
:100EA0000348406800F00C000828F9D10CBD000090
:100EB00000100240002002407047000010B51348A7
:100EC000006840F001001149086008464068104978
:100ED00008400E494860084600680E4908400B4922
:100EE00008600846006820F48020086008464068D2
:100EF00020F4FE0048604FF41F008860FFF767FF92
:100F00004FF000600449086010BD0000001002406E
:100F10000000FFF8FFFFF6FE08ED00E000BFFEE76F
:100F20009AB0002500245022754906A8FFF73EF923
:100F3000142101A8FFF76CF9FFF71CFEFFF7E4FC92
:100F4000FFF7FAFC6FA201210846FFF7E9FE6FA246
:100F500001210220FFF7E4FE6EA201210320FFF72A
:100F6000DFFE6EA201210420FFF7DAFEC6E0FFF7E4
:100F70009DFC0546012D3DD104EB840106AA02EB40
:100F80008100FFF757FD04EB840006A901EB800008
:100F9000C07A401C04EB840106AA02EB8101C872EE
:100FA00004EB840006A901EB8000007B401CC1B269
:100FB00004EB840002EB8000017304EB840006A9BB
:100FC00001EB8000407B401CC1B204EB840002EBCB
:100FD0008000417304EB840006A901EB8000807B54
:100FE000401CC1B204EB840002EB80008173641CDE
:100FF00004F00304FFF710FD01287FD101A8FFF7DB
:1010000001FD9DF80C0058B946A206210120FFF70A
:1010100087FE082306210220019AFFF757FE14E0FD
:101020009DF80C0004280BD13FA206210120FFF7F8
:1010300077FE082306210220029AFFF747FE04E00C
:101040003AA206210120FFF76BFE9DF80D0040BB80
:1010500037A20A210120FFF763FE9DF80E2001232D
:1010600006210320FFF732FE9DF80F200223062100
:101070000420FFF72BFE9DF81020022309210420F5
:10108000FFF724FE9DF8112002230C210420FFF716
:101090001DFE9DF8122002230F210420FFF716FEEB
:1010A0002CE09DF80D00022823D123A20A21012063
:1010B000FFF736FE0123002206210320FFF706FE7C
:1010C0000223002206210420FFF700FE0223002253
:1010D00009210420FFF7FAFD022300220C2104203D
:1010E000FFF7F4FD022300220F210420FFF7EEFD9D
:1010F00004E013A20A210120FFF712FE37E70000E7
:1011000038170008205278203A00000052784944ED
:101110003A0000004C656E673A000000446174615B
:101120003A000000537464004578740020202000C9
:10113000446174612020000052656D6F7465000089
:1011400020202020202000000000000000000000DF
:101150000000000000000000000000F80000000097
:10116000000000333000000000100C06100C0600D8
:10117000000000000000000040C07840C07840003F
:10118000043F04043F040400007088FC08300000A1
:10119000001820FF211E0000F008F000E0180000F9
:1011A00000211C031E211E0000F0088870000000B2
:1011B0001E2123241927211010160E000000000004
:1011C0000000000000000000000000E01804020021
:1011D000000000071820400000020418E000000092
:1011E0000040201807000000404080F08040400090
:1011F0000202010F01020200000000F000000000E6
:101200000101011F010101000000000000000000B9
:1012100080B070000000000000000000000000002E
:1012200000010101010101010000000000000000B7
:101230000030300000000000000000008060180452
:10124000006018060100000000E010080810E0002F
:10125000000F102020100F00001010F800000000F8
:101260000020203F2020000000700808088870003F
:1012700000302824222130000030088888483000BF
:101280000018202020110E000000C02010F80000DF
:1012900000070424243F240000F808888808080078
:1012A0000019212020110E0000E01088881800008D
:1012B000000F112020110E0000380808C83808005F
:1012C0000000003F000000000070880808887000DF
:1012D000001C222121221C0000E010080810E00060
:1012E0000000312222110F00000000C0C0000000E9
:1012F000000000303000000000000080000000000E
:101300000000806000000000000080402010080005
:1013100000010204081020004040404040404000CE
:1013200004040404040404000008102040800000A9
:101330000020100804020100007048080808F000AE
:101340000000003036010000C030C828E810E0007E
:101350000718272423140B000000C038E000000009
:10136000203C23020227382008F888888870000073
:10137000203F202020110E00C03008080808380047
:10138000071820202010080008F808080810E000BE
:10139000203F202020100F0008F88888E80810005F
:1013A000203F20202320180008F88888E808100033
:1013B000203F200003000000C0300808083800006B
:1013C00007182020221E020008F808000008F8086C
:1013D000203F210101213F20000808F808080000F3
:1013E0000020203F2020000000000808F808080026
:1013F000C08080807F00000008F888C0281808009E
:10140000203F20012638200008F8080000000000D6
:10141000203F20202020300008F8F800F8F80800CD
:10142000203F003F003F200008F830C00008F808C7
:10143000203F200007183F00E01008080810E000D7
:101440000F10202020100F0008F808080808F000EE
:10145000203F210101010000E01008080810E00011
:101460000F18242438504F0008F8888888887000A6
:10147000203F2000030C3020007088080808380046
:101480000038202121221C00180808F8080818003C
:101490000000203F2000000008F808000008F808BD
:1014A000001F202020201F000878880000C838086E
:1014B000000007380E010000F80800F80008F800E6
:1014C000033C0700073C0300081868808068180880
:1014D00020302C03032C30200838C800C8380800FE
:1014E0000000203F2000000010080808C83808004D
:1014F0002038262120201800000000FE02020200F1
:101500000000007F40404000000C30C000000000A0
:10151000000000010638C00000020202FE000000C8
:10152000004040407F00000000000402020204006E
:1015300000000000000000000000000000000000AB
:101540008080808080808080000202040000000093
:10155000000000000000000000008080808000008B
:101560000019242222223F2008F800808000000079
:10157000003F112020110E0000000080808000003C
:10158000000E112020201100000000808088F8004B
:10159000000E112020103F2000008080808000007D
:1015A000001F222222221300008080F088888818E1
:1015B0000020203F202000000000808080808000EC
:1015C000006B94949493600008F800808080000081
:1015D000203F210000203F2000809898000000005C
:1015E0000020203F2020000000000080989800008C
:1015F00000C08080807F000008F8000080808000AC
:10160000203F24022D302000000808F800000000D0
:101610000020203F2020000080808080808080008B
:10162000203F20003F20003F80800080808000001D
:10163000203F210000203F200000808080800000AB
:10164000001F202020201F008080008080000000DC
:1016500080FFA12020110E0000000080808080000B
:10166000000E112020A0FF808080800080808000FC
:1016700020203F2120000100000080808080800029
:101680000033242424241900008080E0808000009E
:101690000000001F202000008080000000808000EB
:1016A000001F202020103F2080808000008080804C
:1016B00000010E30080601008080008000808080DC
:1016C0000F300C030C300F00008080008080800001
:1016D0000020312E0E31200080808000008080802C
:1016E00080818E70180601000080808080808000DC
:1016F0000021302C2221300000000000807C0202FA
:1017000000000000003F404000000000FF0000001B
:1017100000000000FF0000000002027C80000000CA
:101720000040403F000000000006010102020404E6
:10173000000000000000000055050000000000004F
:10174000000004000102030000000000000000008F
:101750007856341204000400010203000000000067
:10176000660600000000000000020000000000000B
:10177000000000000000000036527814040200004F
:101780000000000000000000981700080000002082
:081790006006000028010008BA
:040000050800016D81
:00000001FF
